:100000001FC039C038C037C036C035C034C033C057
:1000100032C031C030C02FC02EC02DC02CC02BC06C
:100020002AC029C0ADC027C026C025C024C023C017
:1000300022C021C06364696E6F70737578585B006D
:1000400011241FBECFEFD4E0DEBFCDBF11E0A0E092
:10005000B1E0E2E4F1E102C005900D92AE38B107E3
:10006000D9F721E0AEE8B1E001C01D92A63DB2078C
:10007000E1F7C3D164C8C4CF439888230CF4439AF2
:10008000429886FD429A419885FD419A409884FDA8
:10009000409A2B9A82E08A95F1F700C02B9882E073
:1000A0008A95F1F700C00895CF93C82F2D9A2B9809
:1000B000E3DF8C2F8295807FDFDFCF910895CF9390
:1000C000DF93EC018881882349F02196EDDF8AE6F1
:1000D0008A95F1F700C089918111F8CFDF91CF9116
:1000E0000895CF93C82F2D982B98C6DF8C2F82951B
:1000F000807FC2DFCF9108952FEF80E792E02150FB
:1001000080409040E1F700C000002D982B9883E0DC
:10011000B3DF8FE19EE40197F1F700C0000083E0B8
:10012000ABDF8FE891E00197F1F700C0000083E0BA
:10013000A3DF8FE891E00197F1F700C0000082E8AB
:100140009BDF9DE09A95F1F7000082E8CADF2AE67E
:100150002A95F1F700C081E0C4DF8FE097E20197B4
:10016000F1F700C000008CE0BCDF9AE69A95F1F749
:1001700000C086E0B6DF2AE62A95F1F700C00895B0
:100180001F920F920FB60F9211248F93EF93FF934C
:100190008091C600E0919201F0E0EA56FE4F808324
:1001A000809192018F3319F41092920105C08091D1
:1001B00092018F5F80939201FF91EF918F910F9049
:1001C0000FBE0F901F9018951092C50083E3809387
:1001D000C40088E98093C10086E08093C200519AF0
:1001E000509810929201109293010895E0ECF0E083
:1001F000908195FFFDCF8093C6000895CF93DF9344
:10020000FC012081222369F0DC011196E0ECF0E092
:10021000C6ECD0E0908195FFFDCF28832D91211170
:10022000F9CFDF91CF910895909193018091920140
:100230009817D1F3E0919301F0E0EA56FE4F8081E8
:10024000909193019F3319F4109293010895909126
:1002500093019F5F9093930108952F923F924F9245
:100260005F926F927F928F929F92AF92BF92CF9246
:10027000DF92EF92FF920F931F93CF93DF93CDB74F
:10028000DEB727970FB6F894DEBF0FBECDBF5C0177
:100290004B013A018BE891E0B1DF8BE891E0AEDFF2
:1002A0008BE891E0ABDFCE0101966C017E0196E018
:1002B000E90EF11CCE82DF820F2EF8E44F2EF1E022
:1002C0005F2EF02D8DE291E099DF3C2C2D2C0E81DC
:1002D0001F81AADFF80181938F0188DF0E151F05AA
:1002E000C1F71E82BF92AF925F924F92DF92CF9280
:1002F0006ED1F50180819181805E97400F900F90C3
:100300000F900F900F900F900597E0F67E01F4E0AC
:10031000EF0EF11C3E822F820F2EF8E4AF2EF1E09B
:10032000BF2EF02DCE0101962C018BE491E066DF0B
:1003300067010E811F8178DFF80181938F0156DFFD
:100340000E151F05C1F71C829F928F92BF92AF922C
:100350005F924F923CD1F4018081918101970F907F
:100360000F900F900F900F900F900C97F0F60F2EAC
:10037000F8E4EF2EF1E0FF2EF02DCE0101965C01A6
:1003800085E691E03BDF032D122D4EDFF8018193CE
:100390008F012CDFC016D106C1F71C827F926F92AD
:1003A000FF92EF92BF92AF9212D1F30180819181BF
:1003B00001970F900F900F900F900F900F904F9705
:1003C000F8F68BE891E01ADF27960FB6F894DEBFB7
:1003D0000FBECDBFDF91CF911F910F91FF90EF9096
:1003E000DF90CF90BF90AF909F908F907F906F9055
:1003F0005F904F903F902F900895CF93DF93CDB7AC
:10040000DEB76F970FB6F894DEBF0FBECDBF3B9A35
:100410003A9A399A389A239A259A8AB184708AB975
:100420005A9A85E480937C0086E880937A0064DEA3
:1004300080E091E044DE80EC54DE8AE68A95F1F7B4
:1004400000C08091900190919101009721F482E287
:1004500091E035DE09C0019721F485E191E02FDEBE
:1004600003C08DE091E02BDE7894AEDEAE01425EFB
:100470005F4FBE01645E7F4FCE014A96EEDE8F8DE8
:100480008F938E8D8F938D8D8F938C8D8F938B8D7E
:100490008F938A8D8F938DE791E09F938F938E0139
:1004A0000F5F1F4F1F930F9372D0C801A7DE0FB6C7
:1004B000F894DEBF0FBECDBF03E010E04A9913C031
:1004C0008FE19EE40197F1F700C000004A990BC04C
:1004D00080919001909191010196B80131D0909353
:1004E0008F0180938E0120918E0130918F01809138
:1004F00090019091910128173907C9F080ECF1DD46
:100500009AE69A95F1F700C080918E0190918F0143
:10051000009721F482E291E0D2DD09C0019721F435
:1005200085E191E0CCDD03C08DE091E0C8DD8091F4
:100530008E0190918F019093910180939001BECF95
:1005400097FB072E16F4009406D077FD08D00BD049
:1005500007FC05D03EF4909581959F4F08957095C6
:1005600061957F4F0895AA1BBB1B51E107C0AA1FCD
:10057000BB1FA617B70710F0A61BB70B881F991F44
:100580005A95A9F780959095BC01CD010895AEE0EC
:10059000B0E0ECECF2E0AAC50D891E8986E08C8300
:1005A0001A8309838FEF9FE79E838D83AE01475E99
:1005B0005F4F6F89788DCE0101961FD02F813885CE
:1005C000F801E20FF31F10822E96E4E0ABC5AEE017
:1005D000B0E0ECEEF2E08CC585E08C838B899C89E1
:1005E0009A838983AE01495E5F4F6D897E89CE0112
:1005F000019635D32E96E2E097C5ACE0B0E0E2E09C
:10060000F3E066C57C016B018A01FC01178216824A
:10061000838181FFB0C1CE0101964C01F701938126
:10062000F60193FD859193FF81916F01882309F471
:100630009EC1853239F493FD859193FF81916F01BD
:10064000853221F4B70190E091D4E8CF512C312CC0
:1006500020E02032A0F48B3269F030F4803259F07F
:10066000833269F420612CC08D3239F0803339F443
:10067000216026C02260246023C0286021C027FD9D
:1006800027C030ED380F3A3078F426FF06C0FAE084
:100690005F9E300D1124532E13C08AE0389E300D1A
:1006A0001124332E20620CC08E3221F426FD5FC14E
:1006B000206406C08C3611F4206802C0883641F4EC
:1006C000F60193FD859193FF81916F018111C1CF57
:1006D000982F9F7D9554933028F40C5F1F4FFFE3B4
:1006E000F9830DC0833631F0833771F0833509F01B
:1006F00057C021C0F801808189830E5F1F4F4424B9
:100700004394512C540114C03801F2E06F0E711C57
:10071000F801A080B18026FF03C0652D70E002C003
:100720006FEF7FEFC5012C87D8D32C0183012C8577
:100730002F77222E16C03801F2E06F0E711CF801DF
:10074000A080B18026FF03C0652D70E002C06FEF6E
:100750007FEFC5012C87B6D32C012C852068222E73
:10076000830123FC19C0832D90E048165906A0F49C
:10077000B70180E290E0FAD33A94F5CFF50127FC77
:10078000859127FE81915F01B70190E0EFD3311091
:100790003A94F1E04F1A51084114510479F7DEC040
:1007A000843611F0893631F5F80127FF07C06081E2
:1007B0007181828193810C5F1F4F08C060817181BC
:1007C000072E000C880B990B0E5F1F4F2F76722E91
:1007D00097FF09C090958095709561957F4F8F4FD9
:1007E0009F4F2068722E2AE030E0A40110D4A82E7A
:1007F000A81843C0853729F42F7EB22E2AE030E0B6
:1008000025C0F22FF97FBF2E8F36C1F018F488353E
:1008100079F0ADC0803719F0883721F0A8C02F2FAC
:100820002061B22EB4FE0DC08B2D8460B82E09C09D
:1008300024FF0AC09F2F9660B92E06C028E030E042
:1008400005C020E130E002C020E132E0F801B7FE4F
:1008500007C060817181828193810C5F1F4F06C048
:100860006081718180E090E00E5F1F4FA401CFD3C3
:10087000A82EA818FB2DFF777F2E76FE0BC0372DF4
:100880003E7FA51450F474FE0AC072FC08C0372DD8
:100890003E7E05C0BA2C372D03C0BA2C01C0B52C42
:1008A00034FF0DC0FE01EA0DF11D8081803311F48B
:1008B000397E09C032FF06C0B394B39404C0832FBD
:1008C000867809F0B39433FD12C030FF06C05A2C6D
:1008D000B31418F4530C5B18B32CB31460F4B701C1
:1008E00080E290E03C8742D3B3943C85F6CFB314CA
:1008F00010F43B1801C0312C34FF11C0B70180E364
:1009000090E03C8733D33C8532FF16C031FD03C0F5
:1009100088E790E002C088E590E0B7010CC0832F23
:10092000867851F031FF02C08BE201C080E237FDD2
:100930008DE2B70190E01AD3A51430F4B70180E33B
:1009400090E014D35A94F8CFAA94F401EA0DF11D63
:100950008081B70190E00AD3A110F6CF332009F4CB
:100960005DCEB70180E290E001D33A94F7CFF70172
:100970008681978102C08FEF9FEF2C96E2E1C4C37E
:1009800020FD09C0FC0123FD05C022FF02C07383C6
:10099000628351834083089544FD10C046FD10C01A
:1009A000DB01FC01AA0FBB1FEE1FFF1F1094D1F744
:1009B0006A0F7B1F8E1F9F1F31E003C033E001C011
:1009C00034E0660F771F881F991F3150D1F7620FEF
:1009D000711D811D911D08950F931F93CF93DF9378
:1009E0008C01C80185D2EC0197FD06C058D2892B35
:1009F000C1F7B801CE01F2D2CE01DF91CF911F91A4
:100A00000F910895A1E0B0E0E7E0F5E067C38C0145
:100A1000C62E7A0129836CD2AC01552729814B322D
:100A2000510521F04D32510561F42068CA94C1107E
:100A300002C080E06FC0C80129835AD2298197FD86
:100A4000F8CF322F3D7FD32E322F307339F58033DC
:100A500029F5BB24BA94BC0C09F449C0C801298308
:100A600047D2298197FD43C0382F3F7D383561F447
:100A70008D2D8264D82ECA94CA94CC20C1F1C801AD
:100A800037D297FF0BC033C026FF04C02D2D226044
:100A9000D22E03C03D2D3261D32ECB2C812C912C34
:100AA000540120ED280F283078F0D4FE03C0B8019F
:100AB00095D21AC02A3040F0D6FEF9CF2F7D3FEEF6
:100AC000320F3630A0F727504D2DC501B40164DF39
:100AD0004B015C018D2D8260D82ECA94CC2051F040
:100AE000C80106D297FFDDCFD1FC04C0A2CF812C74
:100AF000912C5401D7FE08C0B094A0949094809497
:100B0000811C911CA11CB11C2D2DB501A401C70194
:100B100037DF81E02196ECE0FDC2A1E2B0E0E2E93E
:100B2000F5E0DAC25C017A01CE0101966C0180E247
:100B3000F60111928A95E9F7F501838040E050E0D3
:100B4000912C712C70E0A1E0B0E0F90183FC85915B
:100B500083FE81918F01982F9F01811103C080E056
:100B600090E07AC08E3519F44115510549F1E72F0F
:100B7000F0E0E417F5073CF48D3559F18D3219F4A6
:100B8000772001F103C0711001C0982E892F86953E
:100B9000869586958601080F111D892F87703D0166
:100BA00001C0660C8A95EAF7F80180818629808366
:100BB000991559F0991510F49F5FE8CF9150E6CF41
:100BC00071E004C07724739401C0712C4F5F5F4FB4
:100BD000BCCF772019F08E8180628E83711103C0A3
:100BE0009924939416C0F6019E012F5D3F4F80819A
:100BF00080958193E217F307D1F7F2CFE114F10466
:100C000029F0F7018083C70101967C016150912C86
:100C1000E9F0C50169A36CD169A197FD15C0282F22
:100C2000269526952695F601E20FF11D208130E0EC
:100C3000AC014770552702C0359527954A95E2F7D4
:100C400020FDDCCFB501CAD1911089CFE114F104A8
:100C500011F0F7011082C801A196EEE059C24F923F
:100C60005F927F928F929F92AF92BF92CF92DF92CC
:100C7000EF92FF920F931F93CF93DF931F92CDB705
:100C8000DEB76C012B015A01FC0117821682712C10
:100C9000F601F380F201F3FC8591F3FE8191382F88
:100CA0002F01882309F4E5C090E03983F8D0398119
:100CB000892B19F0C60190DEEBCF353241F4F201F9
:100CC000F3FC3591F3FE31912F01353259F4C60111
:100CD00039830ED1398197FDCAC03817C9F2B601E0
:100CE0007DD1C7C03A3239F4F3FC3591F3FE31912E
:100CF0002F0151E001C050E0420110E020ED230F30
:100D00002A3088F45260612F70E080E090E040E289
:100D1000598342DE162FF401F3FC3591F3FE319135
:100D20004F015981EBCF052F232F240151FF03C021
:100D3000111102C09EC01FEF383619F03C3659F031
:100D400011C0F401F3FC2591F3FE21912F01283607
:100D500049F4052F08600460F201F3FC2591F3FECD
:100D600021912F01222309F484C0622F70E084E3D3
:100D700090E029839CD02981892B09F47AC000FD59
:100D800007C0F501E080F180C50102965C0102C058
:100D9000E12CF12C2E3649F4F6014681578160E0B2
:100DA00070E0202FC701ECDD73CF233689F401FFFB
:100DB00011E0C6019DD097FD5AC0E114F10429F05D
:100DC000F7018083C70101967C01115091F74BC058
:100DD0002B3551F49201A701612FC6019EDE2C0133
:100DE000892B09F040C03AC0C6012983F5DD29816D
:100DF00097FD3DC02F3641F128F4243619F12936EC
:100E000031F124C0233769F02537E1F01FC0E11428
:100E1000F10429F0F7018082C70101967C0111508D
:100E200059F0C60165D04C0197FD06C038D0892B1A
:100E300071F3B601C401D2D0E114F104A1F0F701BD
:100E4000108211C0006203C0006101C00064202F45
:100E5000A701612FC601D6DD811105C0F60183818E
:100E6000807329F406C000FD13CF739411CF77204F
:100E700019F0872D90E002C08FEF9FEF0F90DF9168
:100E8000CF911F910F91FF90EF90DF90CF90BF9087
:100E9000AF909F908F907F905F904F9008959111A9
:100EA00014C1803219F089508550D0F70895FC01A3
:100EB0000590061621F00020D9F7C001089531975A
:100EC000CF010895FC010590615070400110D8F7E2
:100ED000809590958E0F9F1F0895FC016150704082
:100EE00001900110D8F7809590958E0F9F1F08955F
:100EF000CF93DF93EC012B8120FF33C026FF0AC084
:100F00002F7B2B838E819F8101969F838E838A8185
:100F100090E029C022FF0FC0E881F9818081082E6E
:100F2000000C990B009719F420622B831AC031969C
:100F3000F983E8830EC0EA85FB85099597FF09C010
:100F40002B81019611F080E201C080E1822B8B831E
:100F500008C02E813F812F5F3F4F3F832E8399270B
:100F600002C08FEF9FEFDF91CF9108950F931F93F2
:100F7000CF93DF93FB01238121FD03C08FEF9FEF10
:100F800028C022FF16C0468157812481358142172F
:100F9000530744F4A081B1819D012F5F3F4F3183FE
:100FA00020838C93268137812F5F3F4F37832683A1
:100FB00010C0EB01092F182F0084F185E02D099551
:100FC000892BE1F68E819F8101969F838E83812FED
:100FD000902FDF91CF911F910F910895FB012381F5
:100FE00020FF12C026FD10C08F3F3FEF930761F036
:100FF00082832F7D2064238326813781215031090C
:1010000037832683992708958FEF9FEF0895FA017C
:10101000AA27283051F1203181F1E8946F936E7F37
:101020006E5F7F4F8F4F9F4FAF4FB1E03ED0B4E028
:101030003CD0670F781F891F9A1FA11D680F791F69
:101040008A1F911DA11D6A0F711D811D911DA11D7A
:1010500020D009F468943F912AE0269F112430198A
:10106000305D3193DEF6CF010895462F4770405D25
:101070004193B3E00FD0C9F7F6CF462F4F70405DD4
:101080004A3318F0495D31FD4052419302D0A9F72F
:10109000EACFB4E0A6959795879577956795BA9529
:1010A000C9F700976105710508959B01AC010A2EEF
:1010B00006945795479537952795BA95C9F7620FC6
:1010C000731F841F951FA01D0895992788270895D1
:1010D0002F923F924F925F926F927F928F929F9248
:1010E000AF92BF92CF92DF92EF92FF920F931F9336
:1010F000CF93DF93CDB7DEB7CA1BDB0B0FB6F894E7
:10110000DEBF0FBECDBF09942A88398848885F8426
:101110006E847D848C849B84AA84B984C884DF8097
:10112000EE80FD800C811B81AA81B981CE0FD11D7B
:101130000FB6F894DEBF0FBECDBFED010895F89451
:02114000FFCFDF
:1011420043757272656E742074696D650054656DC5
:1011520070203D20004672657175656E6379203D91
:101162002000566F6C74616765203D20000A506C48
:101172006561736520456E746572205965617220E0
:101182002879797979293A002564000A506C6561D9
:10119200736520456E746572204D6F6E74682028E9
:1011A2006D6D293A000A506C6561736520456E7455
:1011B20065722044617920286464293A004461748C
:0E11C200653A2025642F25642F25640A00005D
:00000001FF
